{
  "contractName": "Auction",
  "abi": [
    {
      "inputs": [],
      "stateMutability": "nonpayable",
      "type": "constructor"
    },
    {
      "inputs": [],
      "name": "putBid",
      "outputs": [],
      "stateMutability": "payable",
      "type": "function",
      "payable": true
    },
    {
      "inputs": [
        {
          "internalType": "address",
          "name": "_address",
          "type": "address"
        }
      ],
      "name": "getBidderBid",
      "outputs": [
        {
          "internalType": "uint256",
          "name": "",
          "type": "uint256"
        }
      ],
      "stateMutability": "view",
      "type": "function",
      "constant": true
    },
    {
      "inputs": [],
      "name": "HighestBid",
      "outputs": [
        {
          "internalType": "uint256",
          "name": "",
          "type": "uint256"
        }
      ],
      "stateMutability": "view",
      "type": "function",
      "constant": true
    },
    {
      "inputs": [],
      "name": "HighestBidder",
      "outputs": [
        {
          "internalType": "address",
          "name": "",
          "type": "address"
        }
      ],
      "stateMutability": "view",
      "type": "function",
      "constant": true
    },
    {
      "inputs": [
        {
          "internalType": "uint256",
          "name": "_endTime",
          "type": "uint256"
        }
      ],
      "name": "putEndTime",
      "outputs": [],
      "stateMutability": "nonpayable",
      "type": "function"
    },
    {
      "inputs": [],
      "name": "endAuction",
      "outputs": [],
      "stateMutability": "nonpayable",
      "type": "function"
    },
    {
      "inputs": [
        {
          "internalType": "address payable",
          "name": "_address",
          "type": "address"
        }
      ],
      "name": "withdrawBid",
      "outputs": [],
      "stateMutability": "nonpayable",
      "type": "function"
    }
  ],
  "bytecode": "0x6080604052426003556000600560146101000a81548160ff02191690831515021790555034801561002f57600080fd5b5033600560006101000a81548173ffffffffffffffffffffffffffffffffffffffff021916908373ffffffffffffffffffffffffffffffffffffffff16021790555061072f806100806000396000f3fe6080604052600436106100705760003560e01c8063996657af1161004e578063996657af146100f2578063e71ba2bd1461011d578063f5cc772a1461015a578063fe67a54b1461016457610070565b8063167fb50e146100755780634ede3648146100a05780637f6a9d50146100c9575b600080fd5b34801561008157600080fd5b5061008a61017b565b6040516100979190610477565b60405180910390f35b3480156100ac57600080fd5b506100c760048036038101906100c291906104f5565b610185565b005b3480156100d557600080fd5b506100f060048036038101906100eb919061054e565b610255565b005b3480156100fe57600080fd5b5061010761025f565b604051610114919061059c565b60405180910390f35b34801561012957600080fd5b50610144600480360381019061013f91906105e3565b610289565b6040516101519190610477565b60405180910390f35b6101626102d1565b005b34801561017057600080fd5b506101796103eb565b005b6000600154905090565b60008060008373ffffffffffffffffffffffffffffffffffffffff1673ffffffffffffffffffffffffffffffffffffffff168152602001908152602001600020541115610252578073ffffffffffffffffffffffffffffffffffffffff166108fc6000808473ffffffffffffffffffffffffffffffffffffffff1673ffffffffffffffffffffffffffffffffffffffff168152602001908152602001600020549081150290604051600060405180830381858888f19350505050158015610250573d6000803e3d6000fd5b505b50565b8060048190555050565b6000600260009054906101000a900473ffffffffffffffffffffffffffffffffffffffff16905090565b60008060008373ffffffffffffffffffffffffffffffffffffffff1673ffffffffffffffffffffffffffffffffffffffff168152602001908152602001600020549050919050565b600034905060003411610319576040517f08c379a00000000000000000000000000000000000000000000000000000000081526004016103109061066d565b60405180910390fd5b600154811161035d576040517f08c379a0000000000000000000000000000000000000000000000000000000008152600401610354906106d9565b60405180910390fd5b806000803373ffffffffffffffffffffffffffffffffffffffff1673ffffffffffffffffffffffffffffffffffffffff168152602001908152602001600020819055508060018190555033600260006101000a81548173ffffffffffffffffffffffffffffffffffffffff021916908373ffffffffffffffffffffffffffffffffffffffff16021790555050565b600560009054906101000a900473ffffffffffffffffffffffffffffffffffffffff1673ffffffffffffffffffffffffffffffffffffffff163373ffffffffffffffffffffffffffffffffffffffff160361045c576001600560146101000a81548160ff0219169083151502179055505b565b6000819050919050565b6104718161045e565b82525050565b600060208201905061048c6000830184610468565b92915050565b600080fd5b600073ffffffffffffffffffffffffffffffffffffffff82169050919050565b60006104c282610497565b9050919050565b6104d2816104b7565b81146104dd57600080fd5b50565b6000813590506104ef816104c9565b92915050565b60006020828403121561050b5761050a610492565b5b6000610519848285016104e0565b91505092915050565b61052b8161045e565b811461053657600080fd5b50565b60008135905061054881610522565b92915050565b60006020828403121561056457610563610492565b5b600061057284828501610539565b91505092915050565b600061058682610497565b9050919050565b6105968161057b565b82525050565b60006020820190506105b1600083018461058d565b92915050565b6105c08161057b565b81146105cb57600080fd5b50565b6000813590506105dd816105b7565b92915050565b6000602082840312156105f9576105f8610492565b5b6000610607848285016105ce565b91505092915050565b600082825260208201905092915050565b7f4249442043414e4e4f54204245205a45524f0000000000000000000000000000600082015250565b6000610657601283610610565b915061066282610621565b602082019050919050565b600060208201905081810360008301526106868161064a565b9050919050565b7f686967686573742062696420697320616c72656164792070726573656e740000600082015250565b60006106c3601e83610610565b91506106ce8261068d565b602082019050919050565b600060208201905081810360008301526106f2816106b6565b905091905056fea264697066735822122098a4884e0642c0080c8d35755bc6082a3a3dd761a707495359fb3df15430c11664736f6c63430008110033",
  "immutableReferences": {},
  "source": "// SPDX-License-Identifier: GPL-3.0\n\npragma solidity >0.4.0 <0.9.0;\n\ncontract Auction {\n    mapping(address => uint256) biddersData;\n    uint256 highestBidAmount;\n    address highestBidder;\n    uint256 startTime = block.timestamp;\n    uint256 endTime;\n    address owner;\n    bool auctionEnded = false;\n\n    constructor() {\n        owner = msg.sender;\n    }\n\n    //put new bid\n    function putBid() public payable {\n        uint256 CalculateAmount = msg.value;\n\n        //require(auctionEnded==true,\"auction is ended\");\n        //require(block.timestamp<=endTime,\"Auction is ended\");\n\n        require(msg.value > 0, \"BID CANNOT BE ZERO\");\n\n        //check highestbid;\n        require(\n            CalculateAmount > highestBidAmount,\n            \"highest bid is already present\"\n        );\n\n        biddersData[msg.sender] = CalculateAmount;\n\n        highestBidAmount = CalculateAmount;\n\n        highestBidder = msg.sender;\n    }\n\n    //get contract balance\n    function getBidderBid(address _address) public view returns (uint256) {\n        return biddersData[_address];\n    }\n\n    function HighestBid() public view returns (uint256) {\n        return highestBidAmount;\n    }\n\n    function HighestBidder() public view returns (address) {\n        return highestBidder;\n    }\n\n    //put endtime\n    function putEndTime(uint256 _endTime) public {\n        endTime = _endTime;\n    }\n\n    //end auction\n    function endAuction() public {\n        if (msg.sender == owner) {\n            auctionEnded = true;\n        }\n    }\n\n    //withdrawbid\n    function withdrawBid(address payable _address) public {\n        if (biddersData[_address] > 0) {\n            _address.transfer(biddersData[_address]);\n        }\n    }\n}\n",
  "sourcePath": "E:\\Bc Projects\\blockchain-based-BIDDINg-system-main\\contracts\\project.sol",
  "compiler": {
    "name": "solc",
    "version": "0.8.17+commit.8df45f5f.Emscripten.clang"
  },
  "schemaVersion": "3.4.11",
  "updatedAt": "2022-12-27T21:30:24.389Z",
  "networkType": "ethereum",
  "devdoc": {
    "kind": "dev",
    "methods": {},
    "version": 1
  },
  "userdoc": {
    "kind": "user",
    "methods": {},
    "version": 1
  }
}